:100000000C942A000C9447000C9447000C94470071
:100010000C9447000C9447000C9447000C94470044
:100020000C9447000C9444010C9447000C94470036
:100030000C9447000C9447000C9447000C94470024
:100040000C9447000C9447000C9447000C94470014
:100050000C94470011241FBECFE5D4E0DEBFCDBF16
:1000600010E0A0E6B0E0E8E1FBE002C005900D92F0
:10007000A63DB107D9F720E0A6EDB0E001C01D9282
:10008000AD3DB207E1F70E9463010C948A050C9420
:1000900000008B3041F08C3021F08A3029F48AE264
:1000A000089583E2089580E0089580E060E170E0C3
:1000B000F1E0E0E0A0E09B01082E02C0220F331F18
:1000C0000A94E2F72ABB20952BBBC89B0EC02F2FAA
:1000D0003E2F922F49B350E0022E02C0559547950E
:1000E0000A94E2F740FD0AC001C090E08F5F292F1B
:1000F000220F920F890F0E94490008952F5F3F4FF2
:100100002430310531F78F5F8330A8F28A2FD3CFA7
:10011000C198C298E9EFF0E03197F1F700C0000014
:10012000C39AE9EFF0E03197F1F700C00000982F93
:1001300092959F7092BBE9EFF0E03197F1F700C024
:100140000000C398E9EFF0E03197F1F700C000003C
:10015000C39AE9EFF0E03197F1F700C000008F702B
:1001600082BB89EF90E00197F1F700C00000C398CF
:10017000E9EFF0E03197F1F700C00000089587B390
:100180008E6087BB81B38F6081BB82E00E94880054
:1001900088E20E9488008CE00E94880081E00E9432
:1001A00088000895C19AC298E9EFF0E03197F1F71D
:1001B00000C00000C39AE9EFF0E03197F1F700C00A
:1001C0000000982F92959F7092BBE9EFF0E0319775
:1001D000F1F700C00000C398E9EFF0E03197F1F7C4
:1001E00000C00000C39AE9EFF0E03197F1F700C0DA
:1001F00000008F7082BB89EF90E00197F1F700C09B
:100200000000C398E9EFF0E03197F1F700C000007B
:1002100008951F93CF93DF93EC018881882351F0D9
:1002200010E00E94D2001F5FFE01E10FF11D8081EE
:100230008111F7CFDF91CF911F910895813031F077
:1002400070F0823031F0833039F00AC090E4960FBC
:1002500007C090E1960F04C090E5960F01C0962F5D
:10026000892F80680E9488000895CF93DF93EA0168
:100270000E941E01CE010E940901DF91CF910895D5
:1002800081E00E94880008951F920F920FB60F928E
:1002900011248F938091D8008F5F8093D800883786
:1002A00029F481E08093D6008093D7008F910F903E
:1002B0000FBE0F901F90189512BE89B7816089BF3D
:1002C00085E883BF08959F92AF92BF92CF92DF924D
:1002D000EF92FF920F931F93CF93DF93CDB7DEB7CB
:1002E00064970FB6F894DEBF0FBECDBF0E945D04C9
:1002F0008FB780688FBF8AE0E0E6F0E0DE011196FC
:1003000001900D928A95E1F70E94BF004AE750E004
:1003100060E082E00E94350160E083E00E941E01FF
:100320008E9A8F9A9698979880E895E20E94320567
:100330008F9A979AC12CB12C7E0125E1E20EF11C17
:10034000AB2C0E9493048091DB0081110E945C0120
:100350008091D800893708F09EC08091D600813006
:1003600009F490C082E08C1508F47DC08091D7001C
:10037000813009F478C099E09D1508F495C08E018C
:10038000055F1F4F9B2C0E945500D82E90E0F8016E
:10039000819391938F0149E850E0692D83E00E9499
:1003A0003501FFE52AEE80E0F15020408040E1F782
:1003B00000C00000939495E09912E5CF0E9440019F
:1003C000DE011196FE013B968B2D419151912D91AD
:1003D0003D914217530709F495C08A2DEE15FF058C
:1003E000A1F78530A9F44BE850E060E083E00E947B
:1003F0003501969AEFE5FEEA2AE0E150F040204010
:10040000E1F700C00000969881E08093D7007CC09F
:100410004CE950E06B2D83E00E943501C394979A1C
:100420008FE996E8E1E081509040E040E1F700C0BC
:10043000000097980E944001F2E0FC1578F044EA31
:1004400050E06B2D82E00E9435012FE986E891E0B3
:10045000215080409040E1F700C00000B092D700EA
:100460000E94400121C00E9440014EEA50E060E03D
:1004700082E00E94350147EB50E060E083E00E949B
:10048000350142C00E94400147EC50E060E082E04C
:100490000E94350139C00E94400147EC50E060E005
:1004A00082E00E94350130C08091D9009091DA003D
:1004B0000E945705E7EAF1E63197F1F700C0000026
:1004C000E091D900F091DA0080818F3409F039CFC2
:1004D00081818E3441F487EA91E60197F1F700C0FB
:1004E000000097982ECF863409F02BCF8281863476
:1004F00009F027CFE7EAF1E63197F1F700C00000F5
:10050000979A1FCF8F5F6ACF80E090E064960FB616
:10051000F894DEBF0FBECDBFDF91CF911F910F9139
:10052000FF90EF90DF90CF90BF90AF909F90089595
:10053000CF93C62FC498880F8E770E942D058C2FDD
:100540000E942D05C49ACF910895C498880F8E7784
:1005500080680E942D0580E00E942D05C49A0895B0
:100560006FE081E00E94980208950E94B0026DE859
:100570008AE20E9498026EE38BE20E9498026EE18A
:100580008CE20E94980260E08DE20E94980260E492
:1005900085E10E9498026DE381E10E94980284E166
:1005A0000E94A502982F937029F4682F636084E15C
:1005B0000E94980208953F924F925F926F927F92AD
:1005C0008F929F92AF92BF92CF92DF92EF92FF9263
:1005D0000F931F93CF93DF93482EE62EF72E842E92
:1005E000722E632E8CE0481631F0EEE04E1661F06C
:1005F000512C312C10C00F2EF0E35F2EF02D0F2E5A
:10060000F7E73F2EF02D07C06894552454F80F2EBD
:10061000F2E13F2EF02D84E00E94A502682F6F7753
:1006200084E00E9498028AE00E94A502682F606818
:100630008AE00E94980260E081E00E949802912C7A
:10064000A12CB12C81149104A104B10499F0CE2DF8
:10065000DF2DC12CD12C7601699189E00E9498028E
:10066000FFEFCF1ADF0AEF0AFF0AC814D904EA0421
:10067000FB0490F3642D81E00E9498028CE0481204
:1006800008C08DE00E94A502682F60688DE00E947E
:10069000980284E00E94A502F82EC0E0D0E0E52D8B
:1006A000E1605E2E0AC084E00E94A502F82E219629
:1006B000CF3CF7E0DF0709F469C08F2D852199F35E
:1006C0006FC0832D8170F82211F4C1E001C0C2E037
:1006D0008CE0481274C08AE00E94A502882E8CE04B
:1006E0000E94A5028770B1F0482D50E04150510999
:1006F000440F551F440F551F440F551F480F511DE0
:10070000662757FD6095762FF801408351836283F9
:10071000738311C0482D50E0440F551F440F551FDF
:10072000440F551F662757FD6095762FF8014083CB
:1007300051836283738381100AC0812C912C5401F0
:100740008394072D162DC12CD12C76010EC0882D37
:10075000813108F080E1882E912CA12CB12C8114DC
:100760009104A104B10469F72AC089E00E94A5029E
:10077000F80181938F01FFEFCF1ADF0AEF0AFF0A1A
:10078000C814D904EA04FB0480F319C08DE00E9468
:10079000A502682F6F778DE00E949802C3E00FC01A
:1007A0008DE00E94A502682F6F778DE00E9498026D
:1007B00086E00E94A5028B7109F483CFC3E08C2FE1
:1007C000DF91CF911F910F91FF90EF90DF90CF902D
:1007D000BF90AF909F908F907F906F905F904F9061
:1007E0003F900895EF92FF920F931F93CF93DF9363
:1007F00000D000D0CDB7DEB7182F7B0167E08DE0C9
:100800000E949802F70110838E010F5F1F4F97011E
:1008100041E0B7018CE00E94DB02813051F4498154
:100820005A816B817C81403151056105710519F454
:1008300003C083E001C083E00F900F900F900F90F2
:10084000DF91CF911F910F91FF90EF900895EF925C
:10085000FF920F931F93CF93DF9300D000D0CDB7BB
:10086000DEB77C0160E08DE00E94980283E9F70129
:10087000808380E281838E010F5F1F4F970142E0EA
:10088000B7018CE00E94DB02813061F4F70120E0C7
:1008900090E0319123279F5F9430D9F7F70194813D
:1008A000291383E00F900F900F900F90DF91CF915D
:1008B0001F910F91FF90EF9008950E9426052FE35E
:1008C0008DE093E0215080409040E1F700C00000AF
:1008D0000E94B50287E30E94A5028093DC0082E0BB
:1008E0000E94A5028093DC00682F606282E00E9473
:1008F000980283E00E94A5028093DC00682F606864
:1009000083E00E9498022FED83E994E0215080401B
:100910009040E1F700C00000B89AB99ABA9AC0981E
:10092000C198C2980895CF93DF93CDB7DEB7A09753
:100930000FB6F894DEBF0FBECDBF88E0EAE6F0E068
:10094000DE01119601900D928A95E1F788E0E2E7C9
:10095000F0E0DE01199601900D928A95E1F7BE0153
:100960006F5E7F4F82E50E94F2038093DC0081304E
:1009700009F05AC0CE0141960E9427048093DC0002
:10098000813009F04DC03989898183130FC0DE01A0
:100990001296FE01729681E02D919191291304C067
:1009A0008F5F8430C9F706C0843021F089858317B2
:1009B00079F02BC0C09A81E08093DB002FED83E9B2
:1009C00094E0215080409040E1F700C000002CC02E
:1009D000DE011A96FE01729681E02D919191291304
:1009E00004C08F5F8430C9F702C0843071F4C19AAB
:1009F00081E08093DB002FED83E994E0215080407B
:100A00009040E1F700C000000FC0C29A2FED83E9CB
:100A100094E0215080409040E1F700C0000004C005
:100A200098B384E0892788BB2FE38DE093E02150C1
:100A300080409040E1F700C00000A0960FB6F89407
:100A4000DEBF0FBECDBFDF91CF91089587B3806B1E
:100A500087BB8DB181658DB908958FB9779BFECF26
:100A60008FB1089528E12AB926E820BDDC01CB0129
:100A7000880F991FAA1FBB1F880F991FAA1FBB1F92
:100A80009C01AD01220F331F441F551F220F331F3E
:100A9000441F551F60E472E48FE090E00E946805F7
:100AA000215029B908955F9BFECF8CB10895CF9353
:100AB000DF93EC010E9453058883882331F021964F
:100AC0000E94530589938111FBCFDF91CF91089547
:100AD000A1E21A2EAA1BBB1BFD010DC0AA1FBB1F42
:100AE000EE1FFF1FA217B307E407F50720F0A21BB4
:100AF000B30BE40BF50B661F771F881F991F1A9421
:100B000069F760957095809590959B01AC01BD014A
:080B1000CF010895F894FFCF16
:100B180001000200030004000500F54CD56509FE3C
:100B2800A99F0286AED5FFFEA99F454E5445522087
:100B380050415353574F5244002A00434F52524595
:100B480043542050415353574F524400494E564145
:100B58004C49440054525920414741494E0073744E
:100B6800617274696E670073656375726974792060
:100B780073797374656D0072756E74696D6520653F
:060B880072726F720000A2
:00000001FF
